{
	"FundMe.sol": {
		"FundMe": {
			"abi": [
				{
					"inputs": [
						{
							"internalType": "address",
							"name": "funder",
							"type": "address"
						}
					],
					"name": "addressToAmountFunded",
					"outputs": [
						{
							"internalType": "uint256",
							"name": "amountFunded",
							"type": "uint256"
						}
					],
					"stateMutability": "view",
					"type": "function"
				},
				{
					"inputs": [],
					"name": "fund",
					"outputs": [],
					"stateMutability": "payable",
					"type": "function"
				},
				{
					"inputs": [
						{
							"internalType": "uint256",
							"name": "",
							"type": "uint256"
						}
					],
					"name": "funders",
					"outputs": [
						{
							"internalType": "address",
							"name": "",
							"type": "address"
						}
					],
					"stateMutability": "view",
					"type": "function"
				},
				{
					"inputs": [
						{
							"internalType": "uint256",
							"name": "ethAmount",
							"type": "uint256"
						}
					],
					"name": "getCOnversionRate",
					"outputs": [
						{
							"internalType": "uint256",
							"name": "",
							"type": "uint256"
						}
					],
					"stateMutability": "view",
					"type": "function"
				},
				{
					"inputs": [],
					"name": "getPrice",
					"outputs": [
						{
							"internalType": "uint256",
							"name": "",
							"type": "uint256"
						}
					],
					"stateMutability": "view",
					"type": "function"
				},
				{
					"inputs": [],
					"name": "minimumUsd",
					"outputs": [
						{
							"internalType": "uint256",
							"name": "",
							"type": "uint256"
						}
					],
					"stateMutability": "view",
					"type": "function"
				}
			],
			"devdoc": {
				"kind": "dev",
				"methods": {},
				"version": 1
			},
			"evm": {
				"assembly": "    /* \"FundMe.sol\":180:1535  contract FundMe {... */\n  mstore(0x40, 0x80)\n    /* \"FundMe.sol\":233:237  5e18 */\n  0x4563918244f40000\n    /* \"FundMe.sol\":205:237  uint256 public minimumUsd = 5e18 */\n  0x00\n  sstore\n    /* \"FundMe.sol\":180:1535  contract FundMe {... */\n  callvalue\n  dup1\n  iszero\n  tag_1\n  jumpi\n  0x00\n  dup1\n  revert\ntag_1:\n  pop\n  dataSize(sub_0)\n  dup1\n  dataOffset(sub_0)\n  0x00\n  codecopy\n  0x00\n  return\nstop\n\nsub_0: assembly {\n        /* \"FundMe.sol\":180:1535  contract FundMe {... */\n      mstore(0x40, 0x80)\n      jumpi(tag_1, lt(calldatasize, 0x04))\n      shr(0xe0, calldataload(0x00))\n      dup1\n      0x098de820\n      eq\n      tag_2\n      jumpi\n      dup1\n      0x3e47d6f3\n      eq\n      tag_3\n      jumpi\n      dup1\n      0x98d5fdca\n      eq\n      tag_4\n      jumpi\n      dup1\n      0xb60d4288\n      eq\n      tag_5\n      jumpi\n      dup1\n      0xc4f970fd\n      eq\n      tag_6\n      jumpi\n      dup1\n      0xdc0d3dff\n      eq\n      tag_7\n      jumpi\n    tag_1:\n      0x00\n      dup1\n      revert\n        /* \"FundMe.sol\":205:237  uint256 public minimumUsd = 5e18 */\n    tag_2:\n      callvalue\n      dup1\n      iszero\n      tag_8\n      jumpi\n      0x00\n      dup1\n      revert\n    tag_8:\n      pop\n      tag_9\n      tag_10\n      jump\t// in\n    tag_9:\n      mload(0x40)\n      tag_11\n      swap2\n      swap1\n      tag_12\n      jump\t// in\n    tag_11:\n      mload(0x40)\n      dup1\n      swap2\n      sub\n      swap1\n      return\n        /* \"FundMe.sol\":277:353  mapping(address funder => uint256 amountFunded) public addressToAmountFunded */\n    tag_3:\n      callvalue\n      dup1\n      iszero\n      tag_13\n      jumpi\n      0x00\n      dup1\n      revert\n    tag_13:\n      pop\n      tag_14\n      0x04\n      dup1\n      calldatasize\n      sub\n      dup2\n      add\n      swap1\n      tag_15\n      swap2\n      swap1\n      tag_16\n      jump\t// in\n    tag_15:\n      tag_17\n      jump\t// in\n    tag_14:\n      mload(0x40)\n      tag_18\n      swap2\n      swap1\n      tag_12\n      jump\t// in\n    tag_18:\n      mload(0x40)\n      dup1\n      swap2\n      sub\n      swap1\n      return\n        /* \"FundMe.sol\":797:1182  function getPrice() public view returns(uint256) {... */\n    tag_4:\n      callvalue\n      dup1\n      iszero\n      tag_19\n      jumpi\n      0x00\n      dup1\n      revert\n    tag_19:\n      pop\n      tag_20\n      tag_21\n      jump\t// in\n    tag_20:\n      mload(0x40)\n      tag_22\n      swap2\n      swap1\n      tag_12\n      jump\t// in\n    tag_22:\n      mload(0x40)\n      dup1\n      swap2\n      sub\n      swap1\n      return\n        /* \"FundMe.sol\":362:749  function fund() public payable {... */\n    tag_5:\n      tag_23\n      tag_24\n      jump\t// in\n    tag_23:\n      stop\n        /* \"FundMe.sol\":1188:1532  function getCOnversionRate(uint256 ethAmount) public view returns(uint256) {... */\n    tag_6:\n      callvalue\n      dup1\n      iszero\n      tag_25\n      jumpi\n      0x00\n      dup1\n      revert\n    tag_25:\n      pop\n      tag_26\n      0x04\n      dup1\n      calldatasize\n      sub\n      dup2\n      add\n      swap1\n      tag_27\n      swap2\n      swap1\n      tag_28\n      jump\t// in\n    tag_27:\n      tag_29\n      jump\t// in\n    tag_26:\n      mload(0x40)\n      tag_30\n      swap2\n      swap1\n      tag_12\n      jump\t// in\n    tag_30:\n      mload(0x40)\n      dup1\n      swap2\n      sub\n      swap1\n      return\n        /* \"FundMe.sol\":246:270  address[] public funders */\n    tag_7:\n      callvalue\n      dup1\n      iszero\n      tag_31\n      jumpi\n      0x00\n      dup1\n      revert\n    tag_31:\n      pop\n      tag_32\n      0x04\n      dup1\n      calldatasize\n      sub\n      dup2\n      add\n      swap1\n      tag_33\n      swap2\n      swap1\n      tag_28\n      jump\t// in\n    tag_33:\n      tag_34\n      jump\t// in\n    tag_32:\n      mload(0x40)\n      tag_35\n      swap2\n      swap1\n      tag_36\n      jump\t// in\n    tag_35:\n      mload(0x40)\n      dup1\n      swap2\n      sub\n      swap1\n      return\n        /* \"FundMe.sol\":205:237  uint256 public minimumUsd = 5e18 */\n    tag_10:\n      sload(0x00)\n      dup2\n      jump\t// out\n        /* \"FundMe.sol\":277:353  mapping(address funder => uint256 amountFunded) public addressToAmountFunded */\n    tag_17:\n      mstore(0x20, 0x02)\n      dup1\n      0x00\n      mstore\n      keccak256(0x00, 0x40)\n      0x00\n      swap2\n      pop\n      swap1\n      pop\n      sload\n      dup2\n      jump\t// out\n        /* \"FundMe.sol\":797:1182  function getPrice() public view returns(uint256) {... */\n    tag_21:\n        /* \"FundMe.sol\":837:844  uint256 */\n      0x00\n        /* \"FundMe.sol\":936:967  AggregatorV3Interface priceFeed */\n      dup1\n        /* \"FundMe.sol\":992:1034  0x694AA1769357215DE4FAC081bf1f309aDC325306 */\n      0x694aa1769357215de4fac081bf1f309adc325306\n        /* \"FundMe.sol\":936:1035  AggregatorV3Interface priceFeed = AggregatorV3Interface(0x694AA1769357215DE4FAC081bf1f309aDC325306) */\n      swap1\n      pop\n        /* \"FundMe.sol\":1048:1060  int256 price */\n      0x00\n        /* \"FundMe.sol\":1067:1076  priceFeed */\n      dup2\n        /* \"FundMe.sol\":1067:1092  priceFeed.latestRoundData */\n      0xffffffffffffffffffffffffffffffffffffffff\n      and\n      0xfeaf968c\n        /* \"FundMe.sol\":1067:1094  priceFeed.latestRoundData() */\n      mload(0x40)\n      dup2\n      0xffffffff\n      and\n      0xe0\n      shl\n      dup2\n      mstore\n      0x04\n      add\n      0xa0\n      mload(0x40)\n      dup1\n      dup4\n      sub\n      dup2\n      dup7\n      gas\n      staticcall\n      iszero\n      dup1\n      iszero\n      tag_39\n      jumpi\n      returndatasize\n      0x00\n      dup1\n      returndatacopy\n      revert(0x00, returndatasize)\n    tag_39:\n      pop\n      pop\n      pop\n      pop\n      mload(0x40)\n      returndatasize\n      not(0x1f)\n      0x1f\n      dup3\n      add\n      and\n      dup3\n      add\n      dup1\n      0x40\n      mstore\n      pop\n      dup2\n      add\n      swap1\n      tag_40\n      swap2\n      swap1\n      tag_41\n      jump\t// in\n    tag_40:\n        /* \"FundMe.sol\":1046:1094  (,int256 price,,,) = priceFeed.latestRoundData() */\n      pop\n      pop\n      pop\n      swap2\n      pop\n      pop\n        /* \"FundMe.sol\":1169:1173  1e10 */\n      0x02540be400\n        /* \"FundMe.sol\":1161:1166  price */\n      dup2\n        /* \"FundMe.sol\":1161:1173  price * 1e10 */\n      tag_42\n      swap2\n      swap1\n      tag_43\n      jump\t// in\n    tag_42:\n        /* \"FundMe.sol\":1146:1174  return uint256(price * 1e10) */\n      swap3\n      pop\n      pop\n      pop\n        /* \"FundMe.sol\":797:1182  function getPrice() public view returns(uint256) {... */\n      swap1\n      jump\t// out\n        /* \"FundMe.sol\":362:749  function fund() public payable {... */\n    tag_24:\n        /* \"FundMe.sol\":562:572  minimumUsd */\n      sload(0x00)\n        /* \"FundMe.sol\":530:558  getCOnversionRate(msg.value) */\n      tag_45\n        /* \"FundMe.sol\":548:557  msg.value */\n      callvalue\n        /* \"FundMe.sol\":530:547  getCOnversionRate */\n      tag_29\n        /* \"FundMe.sol\":530:558  getCOnversionRate(msg.value) */\n      jump\t// in\n    tag_45:\n        /* \"FundMe.sol\":530:572  getCOnversionRate(msg.value) >= minimumUsd */\n      lt\n      iszero\n        /* \"FundMe.sol\":522:614  require(getCOnversionRate(msg.value) >= minimumUsd, \"Didn't send the correct amount of ETH\") */\n      tag_46\n      jumpi\n      mload(0x40)\n      0x08c379a000000000000000000000000000000000000000000000000000000000\n      dup2\n      mstore\n      0x04\n      add\n      tag_47\n      swap1\n      tag_48\n      jump\t// in\n    tag_47:\n      mload(0x40)\n      dup1\n      swap2\n      sub\n      swap1\n      revert\n    tag_46:\n        /* \"FundMe.sol\":625:632  funders */\n      0x01\n        /* \"FundMe.sol\":638:648  msg.sender */\n      caller\n        /* \"FundMe.sol\":625:649  funders.push(msg.sender) */\n      swap1\n      dup1\n      0x01\n      dup2\n      sload\n      add\n      dup1\n      dup3\n      sstore\n      dup1\n      swap2\n      pop\n      pop\n      0x01\n      swap1\n      sub\n      swap1\n      0x00\n      mstore\n      keccak256(0x00, 0x20)\n      add\n      0x00\n      swap1\n      swap2\n      swap1\n      swap2\n      swap1\n      swap2\n      0x0100\n      exp\n      dup2\n      sload\n      dup2\n      0xffffffffffffffffffffffffffffffffffffffff\n      mul\n      not\n      and\n      swap1\n      dup4\n      0xffffffffffffffffffffffffffffffffffffffff\n      and\n      mul\n      or\n      swap1\n      sstore\n      pop\n        /* \"FundMe.sol\":732:741  msg.value */\n      callvalue\n        /* \"FundMe.sol\":696:717  addressToAmountFunded */\n      0x02\n        /* \"FundMe.sol\":696:729  addressToAmountFunded[msg.sender] */\n      0x00\n        /* \"FundMe.sol\":718:728  msg.sender */\n      caller\n        /* \"FundMe.sol\":696:729  addressToAmountFunded[msg.sender] */\n      0xffffffffffffffffffffffffffffffffffffffff\n      and\n      0xffffffffffffffffffffffffffffffffffffffff\n      and\n      dup2\n      mstore\n      0x20\n      add\n      swap1\n      dup2\n      mstore\n      0x20\n      add\n      0x00\n      keccak256\n      sload\n        /* \"FundMe.sol\":696:741  addressToAmountFunded[msg.sender] + msg.value */\n      tag_50\n      swap2\n      swap1\n      tag_51\n      jump\t// in\n    tag_50:\n        /* \"FundMe.sol\":660:681  addressToAmountFunded */\n      0x02\n        /* \"FundMe.sol\":660:693  addressToAmountFunded[msg.sender] */\n      0x00\n        /* \"FundMe.sol\":682:692  msg.sender */\n      caller\n        /* \"FundMe.sol\":660:693  addressToAmountFunded[msg.sender] */\n      0xffffffffffffffffffffffffffffffffffffffff\n      and\n      0xffffffffffffffffffffffffffffffffffffffff\n      and\n      dup2\n      mstore\n      0x20\n      add\n      swap1\n      dup2\n      mstore\n      0x20\n      add\n      0x00\n      keccak256\n        /* \"FundMe.sol\":660:741  addressToAmountFunded[msg.sender] = addressToAmountFunded[msg.sender] + msg.value */\n      dup2\n      swap1\n      sstore\n      pop\n        /* \"FundMe.sol\":362:749  function fund() public payable {... */\n      jump\t// out\n        /* \"FundMe.sol\":1188:1532  function getCOnversionRate(uint256 ethAmount) public view returns(uint256) {... */\n    tag_29:\n        /* \"FundMe.sol\":1254:1261  uint256 */\n      0x00\n        /* \"FundMe.sol\":1329:1345  uint256 ethPrice */\n      dup1\n        /* \"FundMe.sol\":1348:1358  getPrice() */\n      tag_53\n        /* \"FundMe.sol\":1348:1356  getPrice */\n      tag_21\n        /* \"FundMe.sol\":1348:1358  getPrice() */\n      jump\t// in\n    tag_53:\n        /* \"FundMe.sol\":1329:1358  uint256 ethPrice = getPrice() */\n      swap1\n      pop\n        /* \"FundMe.sol\":1438:1460  uint256 ethAmountInUsd */\n      0x00\n        /* \"FundMe.sol\":1488:1492  1e18 */\n      0x0de0b6b3a7640000\n        /* \"FundMe.sol\":1475:1484  ethAmount */\n      dup5\n        /* \"FundMe.sol\":1464:1472  ethPrice */\n      dup4\n        /* \"FundMe.sol\":1464:1484  ethPrice * ethAmount */\n      tag_54\n      swap2\n      swap1\n      tag_55\n      jump\t// in\n    tag_54:\n        /* \"FundMe.sol\":1463:1492  (ethPrice * ethAmount) / 1e18 */\n      tag_56\n      swap2\n      swap1\n      tag_57\n      jump\t// in\n    tag_56:\n        /* \"FundMe.sol\":1438:1492  uint256 ethAmountInUsd = (ethPrice * ethAmount) / 1e18 */\n      swap1\n      pop\n        /* \"FundMe.sol\":1510:1524  ethAmountInUsd */\n      dup1\n        /* \"FundMe.sol\":1503:1524  return ethAmountInUsd */\n      swap3\n      pop\n      pop\n      pop\n        /* \"FundMe.sol\":1188:1532  function getCOnversionRate(uint256 ethAmount) public view returns(uint256) {... */\n      swap2\n      swap1\n      pop\n      jump\t// out\n        /* \"FundMe.sol\":246:270  address[] public funders */\n    tag_34:\n      0x01\n      dup2\n      dup2\n      sload\n      dup2\n      lt\n      tag_58\n      jumpi\n      0x00\n      dup1\n      revert\n    tag_58:\n      swap1\n      0x00\n      mstore\n      keccak256(0x00, 0x20)\n      add\n      0x00\n      swap2\n      pop\n      sload\n      swap1\n      0x0100\n      exp\n      swap1\n      div\n      0xffffffffffffffffffffffffffffffffffffffff\n      and\n      dup2\n      jump\t// out\n        /* \"#utility.yul\":7:84   */\n    tag_60:\n        /* \"#utility.yul\":44:51   */\n      0x00\n        /* \"#utility.yul\":73:78   */\n      dup2\n        /* \"#utility.yul\":62:78   */\n      swap1\n      pop\n        /* \"#utility.yul\":7:84   */\n      swap2\n      swap1\n      pop\n      jump\t// out\n        /* \"#utility.yul\":90:208   */\n    tag_61:\n        /* \"#utility.yul\":177:201   */\n      tag_87\n        /* \"#utility.yul\":195:200   */\n      dup2\n        /* \"#utility.yul\":177:201   */\n      tag_60\n      jump\t// in\n    tag_87:\n        /* \"#utility.yul\":172:175   */\n      dup3\n        /* \"#utility.yul\":165:202   */\n      mstore\n        /* \"#utility.yul\":90:208   */\n      pop\n      pop\n      jump\t// out\n        /* \"#utility.yul\":214:436   */\n    tag_12:\n        /* \"#utility.yul\":307:311   */\n      0x00\n        /* \"#utility.yul\":345:347   */\n      0x20\n        /* \"#utility.yul\":334:343   */\n      dup3\n        /* \"#utility.yul\":330:348   */\n      add\n        /* \"#utility.yul\":322:348   */\n      swap1\n      pop\n        /* \"#utility.yul\":358:429   */\n      tag_89\n        /* \"#utility.yul\":426:427   */\n      0x00\n        /* \"#utility.yul\":415:424   */\n      dup4\n        /* \"#utility.yul\":411:428   */\n      add\n        /* \"#utility.yul\":402:408   */\n      dup5\n        /* \"#utility.yul\":358:429   */\n      tag_61\n      jump\t// in\n    tag_89:\n        /* \"#utility.yul\":214:436   */\n      swap3\n      swap2\n      pop\n      pop\n      jump\t// out\n        /* \"#utility.yul\":523:640   */\n    tag_63:\n        /* \"#utility.yul\":632:633   */\n      0x00\n        /* \"#utility.yul\":629:630   */\n      dup1\n        /* \"#utility.yul\":622:634   */\n      revert\n        /* \"#utility.yul\":769:895   */\n    tag_65:\n        /* \"#utility.yul\":806:813   */\n      0x00\n        /* \"#utility.yul\":846:888   */\n      0xffffffffffffffffffffffffffffffffffffffff\n        /* \"#utility.yul\":839:844   */\n      dup3\n        /* \"#utility.yul\":835:889   */\n      and\n        /* \"#utility.yul\":824:889   */\n      swap1\n      pop\n        /* \"#utility.yul\":769:895   */\n      swap2\n      swap1\n      pop\n      jump\t// out\n        /* \"#utility.yul\":901:997   */\n    tag_66:\n        /* \"#utility.yul\":938:945   */\n      0x00\n        /* \"#utility.yul\":967:991   */\n      tag_95\n        /* \"#utility.yul\":985:990   */\n      dup3\n        /* \"#utility.yul\":967:991   */\n      tag_65\n      jump\t// in\n    tag_95:\n        /* \"#utility.yul\":956:991   */\n      swap1\n      pop\n        /* \"#utility.yul\":901:997   */\n      swap2\n      swap1\n      pop\n      jump\t// out\n        /* \"#utility.yul\":1003:1125   */\n    tag_67:\n        /* \"#utility.yul\":1076:1100   */\n      tag_97\n        /* \"#utility.yul\":1094:1099   */\n      dup2\n        /* \"#utility.yul\":1076:1100   */\n      tag_66\n      jump\t// in\n    tag_97:\n        /* \"#utility.yul\":1069:1074   */\n      dup2\n        /* \"#utility.yul\":1066:1101   */\n      eq\n        /* \"#utility.yul\":1056:1119   */\n      tag_98\n      jumpi\n        /* \"#utility.yul\":1115:1116   */\n      0x00\n        /* \"#utility.yul\":1112:1113   */\n      dup1\n        /* \"#utility.yul\":1105:1117   */\n      revert\n        /* \"#utility.yul\":1056:1119   */\n    tag_98:\n        /* \"#utility.yul\":1003:1125   */\n      pop\n      jump\t// out\n        /* \"#utility.yul\":1131:1270   */\n    tag_68:\n        /* \"#utility.yul\":1177:1182   */\n      0x00\n        /* \"#utility.yul\":1215:1221   */\n      dup2\n        /* \"#utility.yul\":1202:1222   */\n      calldataload\n        /* \"#utility.yul\":1193:1222   */\n      swap1\n      pop\n        /* \"#utility.yul\":1231:1264   */\n      tag_100\n        /* \"#utility.yul\":1258:1263   */\n      dup2\n        /* \"#utility.yul\":1231:1264   */\n      tag_67\n      jump\t// in\n    tag_100:\n        /* \"#utility.yul\":1131:1270   */\n      swap3\n      swap2\n      pop\n      pop\n      jump\t// out\n        /* \"#utility.yul\":1276:1605   */\n    tag_16:\n        /* \"#utility.yul\":1335:1341   */\n      0x00\n        /* \"#utility.yul\":1384:1386   */\n      0x20\n        /* \"#utility.yul\":1372:1381   */\n      dup3\n        /* \"#utility.yul\":1363:1370   */\n      dup5\n        /* \"#utility.yul\":1359:1382   */\n      sub\n        /* \"#utility.yul\":1355:1387   */\n      slt\n        /* \"#utility.yul\":1352:1471   */\n      iszero\n      tag_102\n      jumpi\n        /* \"#utility.yul\":1390:1469   */\n      tag_103\n      tag_63\n      jump\t// in\n    tag_103:\n        /* \"#utility.yul\":1352:1471   */\n    tag_102:\n        /* \"#utility.yul\":1510:1511   */\n      0x00\n        /* \"#utility.yul\":1535:1588   */\n      tag_104\n        /* \"#utility.yul\":1580:1587   */\n      dup5\n        /* \"#utility.yul\":1571:1577   */\n      dup3\n        /* \"#utility.yul\":1560:1569   */\n      dup6\n        /* \"#utility.yul\":1556:1578   */\n      add\n        /* \"#utility.yul\":1535:1588   */\n      tag_68\n      jump\t// in\n    tag_104:\n        /* \"#utility.yul\":1525:1588   */\n      swap2\n      pop\n        /* \"#utility.yul\":1481:1598   */\n      pop\n        /* \"#utility.yul\":1276:1605   */\n      swap3\n      swap2\n      pop\n      pop\n      jump\t// out\n        /* \"#utility.yul\":1611:1733   */\n    tag_69:\n        /* \"#utility.yul\":1684:1708   */\n      tag_106\n        /* \"#utility.yul\":1702:1707   */\n      dup2\n        /* \"#utility.yul\":1684:1708   */\n      tag_60\n      jump\t// in\n    tag_106:\n        /* \"#utility.yul\":1677:1682   */\n      dup2\n        /* \"#utility.yul\":1674:1709   */\n      eq\n        /* \"#utility.yul\":1664:1727   */\n      tag_107\n      jumpi\n        /* \"#utility.yul\":1723:1724   */\n      0x00\n        /* \"#utility.yul\":1720:1721   */\n      dup1\n        /* \"#utility.yul\":1713:1725   */\n      revert\n        /* \"#utility.yul\":1664:1727   */\n    tag_107:\n        /* \"#utility.yul\":1611:1733   */\n      pop\n      jump\t// out\n        /* \"#utility.yul\":1739:1878   */\n    tag_70:\n        /* \"#utility.yul\":1785:1790   */\n      0x00\n        /* \"#utility.yul\":1823:1829   */\n      dup2\n        /* \"#utility.yul\":1810:1830   */\n      calldataload\n        /* \"#utility.yul\":1801:1830   */\n      swap1\n      pop\n        /* \"#utility.yul\":1839:1872   */\n      tag_109\n        /* \"#utility.yul\":1866:1871   */\n      dup2\n        /* \"#utility.yul\":1839:1872   */\n      tag_69\n      jump\t// in\n    tag_109:\n        /* \"#utility.yul\":1739:1878   */\n      swap3\n      swap2\n      pop\n      pop\n      jump\t// out\n        /* \"#utility.yul\":1884:2213   */\n    tag_28:\n        /* \"#utility.yul\":1943:1949   */\n      0x00\n        /* \"#utility.yul\":1992:1994   */\n      0x20\n        /* \"#utility.yul\":1980:1989   */\n      dup3\n        /* \"#utility.yul\":1971:1978   */\n      dup5\n        /* \"#utility.yul\":1967:1990   */\n      sub\n        /* \"#utility.yul\":1963:1995   */\n      slt\n        /* \"#utility.yul\":1960:2079   */\n      iszero\n      tag_111\n      jumpi\n        /* \"#utility.yul\":1998:2077   */\n      tag_112\n      tag_63\n      jump\t// in\n    tag_112:\n        /* \"#utility.yul\":1960:2079   */\n    tag_111:\n        /* \"#utility.yul\":2118:2119   */\n      0x00\n        /* \"#utility.yul\":2143:2196   */\n      tag_113\n        /* \"#utility.yul\":2188:2195   */\n      dup5\n        /* \"#utility.yul\":2179:2185   */\n      dup3\n        /* \"#utility.yul\":2168:2177   */\n      dup6\n        /* \"#utility.yul\":2164:2186   */\n      add\n        /* \"#utility.yul\":2143:2196   */\n      tag_70\n      jump\t// in\n    tag_113:\n        /* \"#utility.yul\":2133:2196   */\n      swap2\n      pop\n        /* \"#utility.yul\":2089:2206   */\n      pop\n        /* \"#utility.yul\":1884:2213   */\n      swap3\n      swap2\n      pop\n      pop\n      jump\t// out\n        /* \"#utility.yul\":2219:2337   */\n    tag_71:\n        /* \"#utility.yul\":2306:2330   */\n      tag_115\n        /* \"#utility.yul\":2324:2329   */\n      dup2\n        /* \"#utility.yul\":2306:2330   */\n      tag_66\n      jump\t// in\n    tag_115:\n        /* \"#utility.yul\":2301:2304   */\n      dup3\n        /* \"#utility.yul\":2294:2331   */\n      mstore\n        /* \"#utility.yul\":2219:2337   */\n      pop\n      pop\n      jump\t// out\n        /* \"#utility.yul\":2343:2565   */\n    tag_36:\n        /* \"#utility.yul\":2436:2440   */\n      0x00\n        /* \"#utility.yul\":2474:2476   */\n      0x20\n        /* \"#utility.yul\":2463:2472   */\n      dup3\n        /* \"#utility.yul\":2459:2477   */\n      add\n        /* \"#utility.yul\":2451:2477   */\n      swap1\n      pop\n        /* \"#utility.yul\":2487:2558   */\n      tag_117\n        /* \"#utility.yul\":2555:2556   */\n      0x00\n        /* \"#utility.yul\":2544:2553   */\n      dup4\n        /* \"#utility.yul\":2540:2557   */\n      add\n        /* \"#utility.yul\":2531:2537   */\n      dup5\n        /* \"#utility.yul\":2487:2558   */\n      tag_71\n      jump\t// in\n    tag_117:\n        /* \"#utility.yul\":2343:2565   */\n      swap3\n      swap2\n      pop\n      pop\n      jump\t// out\n        /* \"#utility.yul\":2571:2676   */\n    tag_72:\n        /* \"#utility.yul\":2607:2614   */\n      0x00\n        /* \"#utility.yul\":2647:2669   */\n      0xffffffffffffffffffff\n        /* \"#utility.yul\":2640:2645   */\n      dup3\n        /* \"#utility.yul\":2636:2670   */\n      and\n        /* \"#utility.yul\":2625:2670   */\n      swap1\n      pop\n        /* \"#utility.yul\":2571:2676   */\n      swap2\n      swap1\n      pop\n      jump\t// out\n        /* \"#utility.yul\":2682:2802   */\n    tag_73:\n        /* \"#utility.yul\":2754:2777   */\n      tag_120\n        /* \"#utility.yul\":2771:2776   */\n      dup2\n        /* \"#utility.yul\":2754:2777   */\n      tag_72\n      jump\t// in\n    tag_120:\n        /* \"#utility.yul\":2747:2752   */\n      dup2\n        /* \"#utility.yul\":2744:2778   */\n      eq\n        /* \"#utility.yul\":2734:2796   */\n      tag_121\n      jumpi\n        /* \"#utility.yul\":2792:2793   */\n      0x00\n        /* \"#utility.yul\":2789:2790   */\n      dup1\n        /* \"#utility.yul\":2782:2794   */\n      revert\n        /* \"#utility.yul\":2734:2796   */\n    tag_121:\n        /* \"#utility.yul\":2682:2802   */\n      pop\n      jump\t// out\n        /* \"#utility.yul\":2808:2949   */\n    tag_74:\n        /* \"#utility.yul\":2864:2869   */\n      0x00\n        /* \"#utility.yul\":2895:2901   */\n      dup2\n        /* \"#utility.yul\":2889:2902   */\n      mload\n        /* \"#utility.yul\":2880:2902   */\n      swap1\n      pop\n        /* \"#utility.yul\":2911:2943   */\n      tag_123\n        /* \"#utility.yul\":2937:2942   */\n      dup2\n        /* \"#utility.yul\":2911:2943   */\n      tag_73\n      jump\t// in\n    tag_123:\n        /* \"#utility.yul\":2808:2949   */\n      swap3\n      swap2\n      pop\n      pop\n      jump\t// out\n        /* \"#utility.yul\":2955:3031   */\n    tag_75:\n        /* \"#utility.yul\":2991:2998   */\n      0x00\n        /* \"#utility.yul\":3020:3025   */\n      dup2\n        /* \"#utility.yul\":3009:3025   */\n      swap1\n      pop\n        /* \"#utility.yul\":2955:3031   */\n      swap2\n      swap1\n      pop\n      jump\t// out\n        /* \"#utility.yul\":3037:3157   */\n    tag_76:\n        /* \"#utility.yul\":3109:3132   */\n      tag_126\n        /* \"#utility.yul\":3126:3131   */\n      dup2\n        /* \"#utility.yul\":3109:3132   */\n      tag_75\n      jump\t// in\n    tag_126:\n        /* \"#utility.yul\":3102:3107   */\n      dup2\n        /* \"#utility.yul\":3099:3133   */\n      eq\n        /* \"#utility.yul\":3089:3151   */\n      tag_127\n      jumpi\n        /* \"#utility.yul\":3147:3148   */\n      0x00\n        /* \"#utility.yul\":3144:3145   */\n      dup1\n        /* \"#utility.yul\":3137:3149   */\n      revert\n        /* \"#utility.yul\":3089:3151   */\n    tag_127:\n        /* \"#utility.yul\":3037:3157   */\n      pop\n      jump\t// out\n        /* \"#utility.yul\":3163:3304   */\n    tag_77:\n        /* \"#utility.yul\":3219:3224   */\n      0x00\n        /* \"#utility.yul\":3250:3256   */\n      dup2\n        /* \"#utility.yul\":3244:3257   */\n      mload\n        /* \"#utility.yul\":3235:3257   */\n      swap1\n      pop\n        /* \"#utility.yul\":3266:3298   */\n      tag_129\n        /* \"#utility.yul\":3292:3297   */\n      dup2\n        /* \"#utility.yul\":3266:3298   */\n      tag_76\n      jump\t// in\n    tag_129:\n        /* \"#utility.yul\":3163:3304   */\n      swap3\n      swap2\n      pop\n      pop\n      jump\t// out\n        /* \"#utility.yul\":3310:3453   */\n    tag_78:\n        /* \"#utility.yul\":3367:3372   */\n      0x00\n        /* \"#utility.yul\":3398:3404   */\n      dup2\n        /* \"#utility.yul\":3392:3405   */\n      mload\n        /* \"#utility.yul\":3383:3405   */\n      swap1\n      pop\n        /* \"#utility.yul\":3414:3447   */\n      tag_131\n        /* \"#utility.yul\":3441:3446   */\n      dup2\n        /* \"#utility.yul\":3414:3447   */\n      tag_69\n      jump\t// in\n    tag_131:\n        /* \"#utility.yul\":3310:3453   */\n      swap3\n      swap2\n      pop\n      pop\n      jump\t// out\n        /* \"#utility.yul\":3459:4430   */\n    tag_41:\n        /* \"#utility.yul\":3562:3568   */\n      0x00\n        /* \"#utility.yul\":3570:3576   */\n      dup1\n        /* \"#utility.yul\":3578:3584   */\n      0x00\n        /* \"#utility.yul\":3586:3592   */\n      dup1\n        /* \"#utility.yul\":3594:3600   */\n      0x00\n        /* \"#utility.yul\":3643:3646   */\n      0xa0\n        /* \"#utility.yul\":3631:3640   */\n      dup7\n        /* \"#utility.yul\":3622:3629   */\n      dup9\n        /* \"#utility.yul\":3618:3641   */\n      sub\n        /* \"#utility.yul\":3614:3647   */\n      slt\n        /* \"#utility.yul\":3611:3731   */\n      iszero\n      tag_133\n      jumpi\n        /* \"#utility.yul\":3650:3729   */\n      tag_134\n      tag_63\n      jump\t// in\n    tag_134:\n        /* \"#utility.yul\":3611:3731   */\n    tag_133:\n        /* \"#utility.yul\":3770:3771   */\n      0x00\n        /* \"#utility.yul\":3795:3858   */\n      tag_135\n        /* \"#utility.yul\":3850:3857   */\n      dup9\n        /* \"#utility.yul\":3841:3847   */\n      dup3\n        /* \"#utility.yul\":3830:3839   */\n      dup10\n        /* \"#utility.yul\":3826:3848   */\n      add\n        /* \"#utility.yul\":3795:3858   */\n      tag_74\n      jump\t// in\n    tag_135:\n        /* \"#utility.yul\":3785:3858   */\n      swap6\n      pop\n        /* \"#utility.yul\":3741:3868   */\n      pop\n        /* \"#utility.yul\":3907:3909   */\n      0x20\n        /* \"#utility.yul\":3933:3996   */\n      tag_136\n        /* \"#utility.yul\":3988:3995   */\n      dup9\n        /* \"#utility.yul\":3979:3985   */\n      dup3\n        /* \"#utility.yul\":3968:3977   */\n      dup10\n        /* \"#utility.yul\":3964:3986   */\n      add\n        /* \"#utility.yul\":3933:3996   */\n      tag_77\n      jump\t// in\n    tag_136:\n        /* \"#utility.yul\":3923:3996   */\n      swap5\n      pop\n        /* \"#utility.yul\":3878:4006   */\n      pop\n        /* \"#utility.yul\":4045:4047   */\n      0x40\n        /* \"#utility.yul\":4071:4135   */\n      tag_137\n        /* \"#utility.yul\":4127:4134   */\n      dup9\n        /* \"#utility.yul\":4118:4124   */\n      dup3\n        /* \"#utility.yul\":4107:4116   */\n      dup10\n        /* \"#utility.yul\":4103:4125   */\n      add\n        /* \"#utility.yul\":4071:4135   */\n      tag_78\n      jump\t// in\n    tag_137:\n        /* \"#utility.yul\":4061:4135   */\n      swap4\n      pop\n        /* \"#utility.yul\":4016:4145   */\n      pop\n        /* \"#utility.yul\":4184:4186   */\n      0x60\n        /* \"#utility.yul\":4210:4274   */\n      tag_138\n        /* \"#utility.yul\":4266:4273   */\n      dup9\n        /* \"#utility.yul\":4257:4263   */\n      dup3\n        /* \"#utility.yul\":4246:4255   */\n      dup10\n        /* \"#utility.yul\":4242:4264   */\n      add\n        /* \"#utility.yul\":4210:4274   */\n      tag_78\n      jump\t// in\n    tag_138:\n        /* \"#utility.yul\":4200:4274   */\n      swap3\n      pop\n        /* \"#utility.yul\":4155:4284   */\n      pop\n        /* \"#utility.yul\":4323:4326   */\n      0x80\n        /* \"#utility.yul\":4350:4413   */\n      tag_139\n        /* \"#utility.yul\":4405:4412   */\n      dup9\n        /* \"#utility.yul\":4396:4402   */\n      dup3\n        /* \"#utility.yul\":4385:4394   */\n      dup10\n        /* \"#utility.yul\":4381:4403   */\n      add\n        /* \"#utility.yul\":4350:4413   */\n      tag_74\n      jump\t// in\n    tag_139:\n        /* \"#utility.yul\":4340:4413   */\n      swap2\n      pop\n        /* \"#utility.yul\":4294:4423   */\n      pop\n        /* \"#utility.yul\":3459:4430   */\n      swap3\n      swap6\n      pop\n      swap3\n      swap6\n      swap1\n      swap4\n      pop\n      jump\t// out\n        /* \"#utility.yul\":4436:4616   */\n    tag_79:\n        /* \"#utility.yul\":4484:4561   */\n      0x4e487b7100000000000000000000000000000000000000000000000000000000\n        /* \"#utility.yul\":4481:4482   */\n      0x00\n        /* \"#utility.yul\":4474:4562   */\n      mstore\n        /* \"#utility.yul\":4581:4585   */\n      0x11\n        /* \"#utility.yul\":4578:4579   */\n      0x04\n        /* \"#utility.yul\":4571:4586   */\n      mstore\n        /* \"#utility.yul\":4605:4609   */\n      0x24\n        /* \"#utility.yul\":4602:4603   */\n      0x00\n        /* \"#utility.yul\":4595:4610   */\n      revert\n        /* \"#utility.yul\":4622:5178   */\n    tag_43:\n        /* \"#utility.yul\":4661:4668   */\n      0x00\n        /* \"#utility.yul\":4684:4703   */\n      tag_142\n        /* \"#utility.yul\":4701:4702   */\n      dup3\n        /* \"#utility.yul\":4684:4703   */\n      tag_75\n      jump\t// in\n    tag_142:\n        /* \"#utility.yul\":4679:4703   */\n      swap2\n      pop\n        /* \"#utility.yul\":4717:4736   */\n      tag_143\n        /* \"#utility.yul\":4734:4735   */\n      dup4\n        /* \"#utility.yul\":4717:4736   */\n      tag_75\n      jump\t// in\n    tag_143:\n        /* \"#utility.yul\":4712:4736   */\n      swap3\n      pop\n        /* \"#utility.yul\":4771:4772   */\n      dup3\n        /* \"#utility.yul\":4768:4769   */\n      dup3\n        /* \"#utility.yul\":4764:4773   */\n      mul\n        /* \"#utility.yul\":4793:4822   */\n      tag_144\n        /* \"#utility.yul\":4810:4821   */\n      dup2\n        /* \"#utility.yul\":4793:4822   */\n      tag_75\n      jump\t// in\n    tag_144:\n        /* \"#utility.yul\":4782:4822   */\n      swap2\n      pop\n        /* \"#utility.yul\":4880:4946   */\n      0x8000000000000000000000000000000000000000000000000000000000000000\n        /* \"#utility.yul\":4877:4878   */\n      dup5\n        /* \"#utility.yul\":4874:4947   */\n      eq\n        /* \"#utility.yul\":4870:4871   */\n      0x00\n        /* \"#utility.yul\":4867:4868   */\n      dup5\n        /* \"#utility.yul\":4863:4872   */\n      slt\n        /* \"#utility.yul\":4859:4948   */\n      and\n        /* \"#utility.yul\":4856:4971   */\n      iszero\n      tag_145\n      jumpi\n        /* \"#utility.yul\":4951:4969   */\n      tag_146\n      tag_79\n      jump\t// in\n    tag_146:\n        /* \"#utility.yul\":4856:4971   */\n    tag_145:\n        /* \"#utility.yul\":5121:5122   */\n      dup3\n        /* \"#utility.yul\":5112:5119   */\n      dup3\n        /* \"#utility.yul\":5107:5123   */\n      sdiv\n        /* \"#utility.yul\":5104:5105   */\n      dup5\n        /* \"#utility.yul\":5101:5124   */\n      eq\n        /* \"#utility.yul\":5081:5082   */\n      dup4\n        /* \"#utility.yul\":5074:5083   */\n      iszero\n        /* \"#utility.yul\":5054:5138   */\n      or\n        /* \"#utility.yul\":5031:5171   */\n      tag_147\n      jumpi\n        /* \"#utility.yul\":5151:5169   */\n      tag_148\n      tag_79\n      jump\t// in\n    tag_148:\n        /* \"#utility.yul\":5031:5171   */\n    tag_147:\n        /* \"#utility.yul\":4669:5178   */\n      pop\n        /* \"#utility.yul\":4622:5178   */\n      swap3\n      swap2\n      pop\n      pop\n      jump\t// out\n        /* \"#utility.yul\":5184:5353   */\n    tag_80:\n        /* \"#utility.yul\":5268:5279   */\n      0x00\n        /* \"#utility.yul\":5302:5308   */\n      dup3\n        /* \"#utility.yul\":5297:5300   */\n      dup3\n        /* \"#utility.yul\":5290:5309   */\n      mstore\n        /* \"#utility.yul\":5342:5346   */\n      0x20\n        /* \"#utility.yul\":5337:5340   */\n      dup3\n        /* \"#utility.yul\":5333:5347   */\n      add\n        /* \"#utility.yul\":5318:5347   */\n      swap1\n      pop\n        /* \"#utility.yul\":5184:5353   */\n      swap3\n      swap2\n      pop\n      pop\n      jump\t// out\n        /* \"#utility.yul\":5359:5583   */\n    tag_81:\n        /* \"#utility.yul\":5499:5533   */\n      0x4469646e27742073656e642074686520636f727265637420616d6f756e74206f\n        /* \"#utility.yul\":5495:5496   */\n      0x00\n        /* \"#utility.yul\":5487:5493   */\n      dup3\n        /* \"#utility.yul\":5483:5497   */\n      add\n        /* \"#utility.yul\":5476:5534   */\n      mstore\n        /* \"#utility.yul\":5568:5575   */\n      0x6620455448000000000000000000000000000000000000000000000000000000\n        /* \"#utility.yul\":5563:5565   */\n      0x20\n        /* \"#utility.yul\":5555:5561   */\n      dup3\n        /* \"#utility.yul\":5551:5566   */\n      add\n        /* \"#utility.yul\":5544:5576   */\n      mstore\n        /* \"#utility.yul\":5359:5583   */\n      pop\n      jump\t// out\n        /* \"#utility.yul\":5589:5955   */\n    tag_82:\n        /* \"#utility.yul\":5731:5734   */\n      0x00\n        /* \"#utility.yul\":5752:5819   */\n      tag_152\n        /* \"#utility.yul\":5816:5818   */\n      0x25\n        /* \"#utility.yul\":5811:5814   */\n      dup4\n        /* \"#utility.yul\":5752:5819   */\n      tag_80\n      jump\t// in\n    tag_152:\n        /* \"#utility.yul\":5745:5819   */\n      swap2\n      pop\n        /* \"#utility.yul\":5828:5921   */\n      tag_153\n        /* \"#utility.yul\":5917:5920   */\n      dup3\n        /* \"#utility.yul\":5828:5921   */\n      tag_81\n      jump\t// in\n    tag_153:\n        /* \"#utility.yul\":5946:5948   */\n      0x40\n        /* \"#utility.yul\":5941:5944   */\n      dup3\n        /* \"#utility.yul\":5937:5949   */\n      add\n        /* \"#utility.yul\":5930:5949   */\n      swap1\n      pop\n        /* \"#utility.yul\":5589:5955   */\n      swap2\n      swap1\n      pop\n      jump\t// out\n        /* \"#utility.yul\":5961:6380   */\n    tag_48:\n        /* \"#utility.yul\":6127:6131   */\n      0x00\n        /* \"#utility.yul\":6165:6167   */\n      0x20\n        /* \"#utility.yul\":6154:6163   */\n      dup3\n        /* \"#utility.yul\":6150:6168   */\n      add\n        /* \"#utility.yul\":6142:6168   */\n      swap1\n      pop\n        /* \"#utility.yul\":6214:6223   */\n      dup2\n        /* \"#utility.yul\":6208:6212   */\n      dup2\n        /* \"#utility.yul\":6204:6224   */\n      sub\n        /* \"#utility.yul\":6200:6201   */\n      0x00\n        /* \"#utility.yul\":6189:6198   */\n      dup4\n        /* \"#utility.yul\":6185:6202   */\n      add\n        /* \"#utility.yul\":6178:6225   */\n      mstore\n        /* \"#utility.yul\":6242:6373   */\n      tag_155\n        /* \"#utility.yul\":6368:6372   */\n      dup2\n        /* \"#utility.yul\":6242:6373   */\n      tag_82\n      jump\t// in\n    tag_155:\n        /* \"#utility.yul\":6234:6373   */\n      swap1\n      pop\n        /* \"#utility.yul\":5961:6380   */\n      swap2\n      swap1\n      pop\n      jump\t// out\n        /* \"#utility.yul\":6386:6577   */\n    tag_51:\n        /* \"#utility.yul\":6426:6429   */\n      0x00\n        /* \"#utility.yul\":6445:6465   */\n      tag_157\n        /* \"#utility.yul\":6463:6464   */\n      dup3\n        /* \"#utility.yul\":6445:6465   */\n      tag_60\n      jump\t// in\n    tag_157:\n        /* \"#utility.yul\":6440:6465   */\n      swap2\n      pop\n        /* \"#utility.yul\":6479:6499   */\n      tag_158\n        /* \"#utility.yul\":6497:6498   */\n      dup4\n        /* \"#utility.yul\":6479:6499   */\n      tag_60\n      jump\t// in\n    tag_158:\n        /* \"#utility.yul\":6474:6499   */\n      swap3\n      pop\n        /* \"#utility.yul\":6522:6523   */\n      dup3\n        /* \"#utility.yul\":6519:6520   */\n      dup3\n        /* \"#utility.yul\":6515:6524   */\n      add\n        /* \"#utility.yul\":6508:6524   */\n      swap1\n      pop\n        /* \"#utility.yul\":6543:6546   */\n      dup1\n        /* \"#utility.yul\":6540:6541   */\n      dup3\n        /* \"#utility.yul\":6537:6547   */\n      gt\n        /* \"#utility.yul\":6534:6570   */\n      iszero\n      tag_159\n      jumpi\n        /* \"#utility.yul\":6550:6568   */\n      tag_160\n      tag_79\n      jump\t// in\n    tag_160:\n        /* \"#utility.yul\":6534:6570   */\n    tag_159:\n        /* \"#utility.yul\":6386:6577   */\n      swap3\n      swap2\n      pop\n      pop\n      jump\t// out\n        /* \"#utility.yul\":6583:6993   */\n    tag_55:\n        /* \"#utility.yul\":6623:6630   */\n      0x00\n        /* \"#utility.yul\":6646:6666   */\n      tag_162\n        /* \"#utility.yul\":6664:6665   */\n      dup3\n        /* \"#utility.yul\":6646:6666   */\n      tag_60\n      jump\t// in\n    tag_162:\n        /* \"#utility.yul\":6641:6666   */\n      swap2\n      pop\n        /* \"#utility.yul\":6680:6700   */\n      tag_163\n        /* \"#utility.yul\":6698:6699   */\n      dup4\n        /* \"#utility.yul\":6680:6700   */\n      tag_60\n      jump\t// in\n    tag_163:\n        /* \"#utility.yul\":6675:6700   */\n      swap3\n      pop\n        /* \"#utility.yul\":6735:6736   */\n      dup3\n        /* \"#utility.yul\":6732:6733   */\n      dup3\n        /* \"#utility.yul\":6728:6737   */\n      mul\n        /* \"#utility.yul\":6757:6787   */\n      tag_164\n        /* \"#utility.yul\":6775:6786   */\n      dup2\n        /* \"#utility.yul\":6757:6787   */\n      tag_60\n      jump\t// in\n    tag_164:\n        /* \"#utility.yul\":6746:6787   */\n      swap2\n      pop\n        /* \"#utility.yul\":6936:6937   */\n      dup3\n        /* \"#utility.yul\":6927:6934   */\n      dup3\n        /* \"#utility.yul\":6923:6938   */\n      div\n        /* \"#utility.yul\":6920:6921   */\n      dup5\n        /* \"#utility.yul\":6917:6939   */\n      eq\n        /* \"#utility.yul\":6897:6898   */\n      dup4\n        /* \"#utility.yul\":6890:6899   */\n      iszero\n        /* \"#utility.yul\":6870:6953   */\n      or\n        /* \"#utility.yul\":6847:6986   */\n      tag_165\n      jumpi\n        /* \"#utility.yul\":6966:6984   */\n      tag_166\n      tag_79\n      jump\t// in\n    tag_166:\n        /* \"#utility.yul\":6847:6986   */\n    tag_165:\n        /* \"#utility.yul\":6631:6993   */\n      pop\n        /* \"#utility.yul\":6583:6993   */\n      swap3\n      swap2\n      pop\n      pop\n      jump\t// out\n        /* \"#utility.yul\":6999:7179   */\n    tag_83:\n        /* \"#utility.yul\":7047:7124   */\n      0x4e487b7100000000000000000000000000000000000000000000000000000000\n        /* \"#utility.yul\":7044:7045   */\n      0x00\n        /* \"#utility.yul\":7037:7125   */\n      mstore\n        /* \"#utility.yul\":7144:7148   */\n      0x12\n        /* \"#utility.yul\":7141:7142   */\n      0x04\n        /* \"#utility.yul\":7134:7149   */\n      mstore\n        /* \"#utility.yul\":7168:7172   */\n      0x24\n        /* \"#utility.yul\":7165:7166   */\n      0x00\n        /* \"#utility.yul\":7158:7173   */\n      revert\n        /* \"#utility.yul\":7185:7370   */\n    tag_57:\n        /* \"#utility.yul\":7225:7226   */\n      0x00\n        /* \"#utility.yul\":7242:7262   */\n      tag_169\n        /* \"#utility.yul\":7260:7261   */\n      dup3\n        /* \"#utility.yul\":7242:7262   */\n      tag_60\n      jump\t// in\n    tag_169:\n        /* \"#utility.yul\":7237:7262   */\n      swap2\n      pop\n        /* \"#utility.yul\":7276:7296   */\n      tag_170\n        /* \"#utility.yul\":7294:7295   */\n      dup4\n        /* \"#utility.yul\":7276:7296   */\n      tag_60\n      jump\t// in\n    tag_170:\n        /* \"#utility.yul\":7271:7296   */\n      swap3\n      pop\n        /* \"#utility.yul\":7315:7316   */\n      dup3\n        /* \"#utility.yul\":7305:7340   */\n      tag_171\n      jumpi\n        /* \"#utility.yul\":7320:7338   */\n      tag_172\n      tag_83\n      jump\t// in\n    tag_172:\n        /* \"#utility.yul\":7305:7340   */\n    tag_171:\n        /* \"#utility.yul\":7362:7363   */\n      dup3\n        /* \"#utility.yul\":7359:7360   */\n      dup3\n        /* \"#utility.yul\":7355:7364   */\n      div\n        /* \"#utility.yul\":7350:7364   */\n      swap1\n      pop\n        /* \"#utility.yul\":7185:7370   */\n      swap3\n      swap2\n      pop\n      pop\n      jump\t// out\n\n    auxdata: 0xa2646970667358221220a641bd1709a56c98e4fb09948b7e47798a94b97f80ed8f49538450a15493de6564736f6c63430008130033\n}\n",
				"bytecode": {
					"linkReferences": {},
					"object": "6080604052674563918244f4000060005534801561001c57600080fd5b506108968061002c6000396000f3fe6080604052600436106100555760003560e01c8063098de8201461005a5780633e47d6f31461008557806398d5fdca146100c2578063b60d4288146100ed578063c4f970fd146100f7578063dc0d3dff14610134575b600080fd5b34801561006657600080fd5b5061006f610171565b60405161007c919061040a565b60405180910390f35b34801561009157600080fd5b506100ac60048036038101906100a79190610488565b610177565b6040516100b9919061040a565b60405180910390f35b3480156100ce57600080fd5b506100d761018f565b6040516100e4919061040a565b60405180910390f35b6100f5610238565b005b34801561010357600080fd5b5061011e600480360381019061011991906104e1565b610378565b60405161012b919061040a565b60405180910390f35b34801561014057600080fd5b5061015b600480360381019061015691906104e1565b6103b2565b604051610168919061051d565b60405180910390f35b60005481565b60026020528060005260406000206000915090505481565b60008073694aa1769357215de4fac081bf1f309adc325306905060008173ffffffffffffffffffffffffffffffffffffffff1663feaf968c6040518163ffffffff1660e01b815260040160a060405180830381865afa1580156101f6573d6000803e3d6000fd5b505050506040513d601f19601f8201168201806040525081019061021a91906105c5565b5050509150506402540be40081610231919061066f565b9250505090565b60005461024434610378565b1015610285576040517f08c379a000000000000000000000000000000000000000000000000000000000815260040161027c9061076a565b60405180910390fd5b6001339080600181540180825580915050600190039060005260206000200160009091909190916101000a81548173ffffffffffffffffffffffffffffffffffffffff021916908373ffffffffffffffffffffffffffffffffffffffff16021790555034600260003373ffffffffffffffffffffffffffffffffffffffff1673ffffffffffffffffffffffffffffffffffffffff16815260200190815260200160002054610333919061078a565b600260003373ffffffffffffffffffffffffffffffffffffffff1673ffffffffffffffffffffffffffffffffffffffff16815260200190815260200160002081905550565b60008061038361018f565b90506000670de0b6b3a7640000848361039c91906107be565b6103a6919061082f565b90508092505050919050565b600181815481106103c257600080fd5b906000526020600020016000915054906101000a900473ffffffffffffffffffffffffffffffffffffffff1681565b6000819050919050565b610404816103f1565b82525050565b600060208201905061041f60008301846103fb565b92915050565b600080fd5b600073ffffffffffffffffffffffffffffffffffffffff82169050919050565b60006104558261042a565b9050919050565b6104658161044a565b811461047057600080fd5b50565b6000813590506104828161045c565b92915050565b60006020828403121561049e5761049d610425565b5b60006104ac84828501610473565b91505092915050565b6104be816103f1565b81146104c957600080fd5b50565b6000813590506104db816104b5565b92915050565b6000602082840312156104f7576104f6610425565b5b6000610505848285016104cc565b91505092915050565b6105178161044a565b82525050565b6000602082019050610532600083018461050e565b92915050565b600069ffffffffffffffffffff82169050919050565b61055781610538565b811461056257600080fd5b50565b6000815190506105748161054e565b92915050565b6000819050919050565b61058d8161057a565b811461059857600080fd5b50565b6000815190506105aa81610584565b92915050565b6000815190506105bf816104b5565b92915050565b600080600080600060a086880312156105e1576105e0610425565b5b60006105ef88828901610565565b95505060206106008882890161059b565b9450506040610611888289016105b0565b9350506060610622888289016105b0565b925050608061063388828901610565565b9150509295509295909350565b7f4e487b7100000000000000000000000000000000000000000000000000000000600052601160045260246000fd5b600061067a8261057a565b91506106858361057a565b92508282026106938161057a565b91507f800000000000000000000000000000000000000000000000000000000000000084146000841216156106cb576106ca610640565b5b82820584148315176106e0576106df610640565b5b5092915050565b600082825260208201905092915050565b7f4469646e27742073656e642074686520636f727265637420616d6f756e74206f60008201527f6620455448000000000000000000000000000000000000000000000000000000602082015250565b60006107546025836106e7565b915061075f826106f8565b604082019050919050565b6000602082019050818103600083015261078381610747565b9050919050565b6000610795826103f1565b91506107a0836103f1565b92508282019050808211156107b8576107b7610640565b5b92915050565b60006107c9826103f1565b91506107d4836103f1565b92508282026107e2816103f1565b915082820484148315176107f9576107f8610640565b5b5092915050565b7f4e487b7100000000000000000000000000000000000000000000000000000000600052601260045260246000fd5b600061083a826103f1565b9150610845836103f1565b92508261085557610854610800565b5b82820490509291505056fea2646970667358221220a641bd1709a56c98e4fb09948b7e47798a94b97f80ed8f49538450a15493de6564736f6c63430008130033",
					"opcodes": "PUSH1 0x80 PUSH1 0x40 MSTORE PUSH8 0x4563918244F40000 PUSH1 0x0 SSTORE CALLVALUE DUP1 ISZERO PUSH2 0x1C JUMPI PUSH1 0x0 DUP1 REVERT JUMPDEST POP PUSH2 0x896 DUP1 PUSH2 0x2C PUSH1 0x0 CODECOPY PUSH1 0x0 RETURN INVALID PUSH1 0x80 PUSH1 0x40 MSTORE PUSH1 0x4 CALLDATASIZE LT PUSH2 0x55 JUMPI PUSH1 0x0 CALLDATALOAD PUSH1 0xE0 SHR DUP1 PUSH4 0x98DE820 EQ PUSH2 0x5A JUMPI DUP1 PUSH4 0x3E47D6F3 EQ PUSH2 0x85 JUMPI DUP1 PUSH4 0x98D5FDCA EQ PUSH2 0xC2 JUMPI DUP1 PUSH4 0xB60D4288 EQ PUSH2 0xED JUMPI DUP1 PUSH4 0xC4F970FD EQ PUSH2 0xF7 JUMPI DUP1 PUSH4 0xDC0D3DFF EQ PUSH2 0x134 JUMPI JUMPDEST PUSH1 0x0 DUP1 REVERT JUMPDEST CALLVALUE DUP1 ISZERO PUSH2 0x66 JUMPI PUSH1 0x0 DUP1 REVERT JUMPDEST POP PUSH2 0x6F PUSH2 0x171 JUMP JUMPDEST PUSH1 0x40 MLOAD PUSH2 0x7C SWAP2 SWAP1 PUSH2 0x40A JUMP JUMPDEST PUSH1 0x40 MLOAD DUP1 SWAP2 SUB SWAP1 RETURN JUMPDEST CALLVALUE DUP1 ISZERO PUSH2 0x91 JUMPI PUSH1 0x0 DUP1 REVERT JUMPDEST POP PUSH2 0xAC PUSH1 0x4 DUP1 CALLDATASIZE SUB DUP2 ADD SWAP1 PUSH2 0xA7 SWAP2 SWAP1 PUSH2 0x488 JUMP JUMPDEST PUSH2 0x177 JUMP JUMPDEST PUSH1 0x40 MLOAD PUSH2 0xB9 SWAP2 SWAP1 PUSH2 0x40A JUMP JUMPDEST PUSH1 0x40 MLOAD DUP1 SWAP2 SUB SWAP1 RETURN JUMPDEST CALLVALUE DUP1 ISZERO PUSH2 0xCE JUMPI PUSH1 0x0 DUP1 REVERT JUMPDEST POP PUSH2 0xD7 PUSH2 0x18F JUMP JUMPDEST PUSH1 0x40 MLOAD PUSH2 0xE4 SWAP2 SWAP1 PUSH2 0x40A JUMP JUMPDEST PUSH1 0x40 MLOAD DUP1 SWAP2 SUB SWAP1 RETURN JUMPDEST PUSH2 0xF5 PUSH2 0x238 JUMP JUMPDEST STOP JUMPDEST CALLVALUE DUP1 ISZERO PUSH2 0x103 JUMPI PUSH1 0x0 DUP1 REVERT JUMPDEST POP PUSH2 0x11E PUSH1 0x4 DUP1 CALLDATASIZE SUB DUP2 ADD SWAP1 PUSH2 0x119 SWAP2 SWAP1 PUSH2 0x4E1 JUMP JUMPDEST PUSH2 0x378 JUMP JUMPDEST PUSH1 0x40 MLOAD PUSH2 0x12B SWAP2 SWAP1 PUSH2 0x40A JUMP JUMPDEST PUSH1 0x40 MLOAD DUP1 SWAP2 SUB SWAP1 RETURN JUMPDEST CALLVALUE DUP1 ISZERO PUSH2 0x140 JUMPI PUSH1 0x0 DUP1 REVERT JUMPDEST POP PUSH2 0x15B PUSH1 0x4 DUP1 CALLDATASIZE SUB DUP2 ADD SWAP1 PUSH2 0x156 SWAP2 SWAP1 PUSH2 0x4E1 JUMP JUMPDEST PUSH2 0x3B2 JUMP JUMPDEST PUSH1 0x40 MLOAD PUSH2 0x168 SWAP2 SWAP1 PUSH2 0x51D JUMP JUMPDEST PUSH1 0x40 MLOAD DUP1 SWAP2 SUB SWAP1 RETURN JUMPDEST PUSH1 0x0 SLOAD DUP2 JUMP JUMPDEST PUSH1 0x2 PUSH1 0x20 MSTORE DUP1 PUSH1 0x0 MSTORE PUSH1 0x40 PUSH1 0x0 KECCAK256 PUSH1 0x0 SWAP2 POP SWAP1 POP SLOAD DUP2 JUMP JUMPDEST PUSH1 0x0 DUP1 PUSH20 0x694AA1769357215DE4FAC081BF1F309ADC325306 SWAP1 POP PUSH1 0x0 DUP2 PUSH20 0xFFFFFFFFFFFFFFFFFFFFFFFFFFFFFFFFFFFFFFFF AND PUSH4 0xFEAF968C PUSH1 0x40 MLOAD DUP2 PUSH4 0xFFFFFFFF AND PUSH1 0xE0 SHL DUP2 MSTORE PUSH1 0x4 ADD PUSH1 0xA0 PUSH1 0x40 MLOAD DUP1 DUP4 SUB DUP2 DUP7 GAS STATICCALL ISZERO DUP1 ISZERO PUSH2 0x1F6 JUMPI RETURNDATASIZE PUSH1 0x0 DUP1 RETURNDATACOPY RETURNDATASIZE PUSH1 0x0 REVERT JUMPDEST POP POP POP POP PUSH1 0x40 MLOAD RETURNDATASIZE PUSH1 0x1F NOT PUSH1 0x1F DUP3 ADD AND DUP3 ADD DUP1 PUSH1 0x40 MSTORE POP DUP2 ADD SWAP1 PUSH2 0x21A SWAP2 SWAP1 PUSH2 0x5C5 JUMP JUMPDEST POP POP POP SWAP2 POP POP PUSH5 0x2540BE400 DUP2 PUSH2 0x231 SWAP2 SWAP1 PUSH2 0x66F JUMP JUMPDEST SWAP3 POP POP POP SWAP1 JUMP JUMPDEST PUSH1 0x0 SLOAD PUSH2 0x244 CALLVALUE PUSH2 0x378 JUMP JUMPDEST LT ISZERO PUSH2 0x285 JUMPI PUSH1 0x40 MLOAD PUSH32 0x8C379A000000000000000000000000000000000000000000000000000000000 DUP2 MSTORE PUSH1 0x4 ADD PUSH2 0x27C SWAP1 PUSH2 0x76A JUMP JUMPDEST PUSH1 0x40 MLOAD DUP1 SWAP2 SUB SWAP1 REVERT JUMPDEST PUSH1 0x1 CALLER SWAP1 DUP1 PUSH1 0x1 DUP2 SLOAD ADD DUP1 DUP3 SSTORE DUP1 SWAP2 POP POP PUSH1 0x1 SWAP1 SUB SWAP1 PUSH1 0x0 MSTORE PUSH1 0x20 PUSH1 0x0 KECCAK256 ADD PUSH1 0x0 SWAP1 SWAP2 SWAP1 SWAP2 SWAP1 SWAP2 PUSH2 0x100 EXP DUP2 SLOAD DUP2 PUSH20 0xFFFFFFFFFFFFFFFFFFFFFFFFFFFFFFFFFFFFFFFF MUL NOT AND SWAP1 DUP4 PUSH20 0xFFFFFFFFFFFFFFFFFFFFFFFFFFFFFFFFFFFFFFFF AND MUL OR SWAP1 SSTORE POP CALLVALUE PUSH1 0x2 PUSH1 0x0 CALLER PUSH20 0xFFFFFFFFFFFFFFFFFFFFFFFFFFFFFFFFFFFFFFFF AND PUSH20 0xFFFFFFFFFFFFFFFFFFFFFFFFFFFFFFFFFFFFFFFF AND DUP2 MSTORE PUSH1 0x20 ADD SWAP1 DUP2 MSTORE PUSH1 0x20 ADD PUSH1 0x0 KECCAK256 SLOAD PUSH2 0x333 SWAP2 SWAP1 PUSH2 0x78A JUMP JUMPDEST PUSH1 0x2 PUSH1 0x0 CALLER PUSH20 0xFFFFFFFFFFFFFFFFFFFFFFFFFFFFFFFFFFFFFFFF AND PUSH20 0xFFFFFFFFFFFFFFFFFFFFFFFFFFFFFFFFFFFFFFFF AND DUP2 MSTORE PUSH1 0x20 ADD SWAP1 DUP2 MSTORE PUSH1 0x20 ADD PUSH1 0x0 KECCAK256 DUP2 SWAP1 SSTORE POP JUMP JUMPDEST PUSH1 0x0 DUP1 PUSH2 0x383 PUSH2 0x18F JUMP JUMPDEST SWAP1 POP PUSH1 0x0 PUSH8 0xDE0B6B3A7640000 DUP5 DUP4 PUSH2 0x39C SWAP2 SWAP1 PUSH2 0x7BE JUMP JUMPDEST PUSH2 0x3A6 SWAP2 SWAP1 PUSH2 0x82F JUMP JUMPDEST SWAP1 POP DUP1 SWAP3 POP POP POP SWAP2 SWAP1 POP JUMP JUMPDEST PUSH1 0x1 DUP2 DUP2 SLOAD DUP2 LT PUSH2 0x3C2 JUMPI PUSH1 0x0 DUP1 REVERT JUMPDEST SWAP1 PUSH1 0x0 MSTORE PUSH1 0x20 PUSH1 0x0 KECCAK256 ADD PUSH1 0x0 SWAP2 POP SLOAD SWAP1 PUSH2 0x100 EXP SWAP1 DIV PUSH20 0xFFFFFFFFFFFFFFFFFFFFFFFFFFFFFFFFFFFFFFFF AND DUP2 JUMP JUMPDEST PUSH1 0x0 DUP2 SWAP1 POP SWAP2 SWAP1 POP JUMP JUMPDEST PUSH2 0x404 DUP2 PUSH2 0x3F1 JUMP JUMPDEST DUP3 MSTORE POP POP JUMP JUMPDEST PUSH1 0x0 PUSH1 0x20 DUP3 ADD SWAP1 POP PUSH2 0x41F PUSH1 0x0 DUP4 ADD DUP5 PUSH2 0x3FB JUMP JUMPDEST SWAP3 SWAP2 POP POP JUMP JUMPDEST PUSH1 0x0 DUP1 REVERT JUMPDEST PUSH1 0x0 PUSH20 0xFFFFFFFFFFFFFFFFFFFFFFFFFFFFFFFFFFFFFFFF DUP3 AND SWAP1 POP SWAP2 SWAP1 POP JUMP JUMPDEST PUSH1 0x0 PUSH2 0x455 DUP3 PUSH2 0x42A JUMP JUMPDEST SWAP1 POP SWAP2 SWAP1 POP JUMP JUMPDEST PUSH2 0x465 DUP2 PUSH2 0x44A JUMP JUMPDEST DUP2 EQ PUSH2 0x470 JUMPI PUSH1 0x0 DUP1 REVERT JUMPDEST POP JUMP JUMPDEST PUSH1 0x0 DUP2 CALLDATALOAD SWAP1 POP PUSH2 0x482 DUP2 PUSH2 0x45C JUMP JUMPDEST SWAP3 SWAP2 POP POP JUMP JUMPDEST PUSH1 0x0 PUSH1 0x20 DUP3 DUP5 SUB SLT ISZERO PUSH2 0x49E JUMPI PUSH2 0x49D PUSH2 0x425 JUMP JUMPDEST JUMPDEST PUSH1 0x0 PUSH2 0x4AC DUP5 DUP3 DUP6 ADD PUSH2 0x473 JUMP JUMPDEST SWAP2 POP POP SWAP3 SWAP2 POP POP JUMP JUMPDEST PUSH2 0x4BE DUP2 PUSH2 0x3F1 JUMP JUMPDEST DUP2 EQ PUSH2 0x4C9 JUMPI PUSH1 0x0 DUP1 REVERT JUMPDEST POP JUMP JUMPDEST PUSH1 0x0 DUP2 CALLDATALOAD SWAP1 POP PUSH2 0x4DB DUP2 PUSH2 0x4B5 JUMP JUMPDEST SWAP3 SWAP2 POP POP JUMP JUMPDEST PUSH1 0x0 PUSH1 0x20 DUP3 DUP5 SUB SLT ISZERO PUSH2 0x4F7 JUMPI PUSH2 0x4F6 PUSH2 0x425 JUMP JUMPDEST JUMPDEST PUSH1 0x0 PUSH2 0x505 DUP5 DUP3 DUP6 ADD PUSH2 0x4CC JUMP JUMPDEST SWAP2 POP POP SWAP3 SWAP2 POP POP JUMP JUMPDEST PUSH2 0x517 DUP2 PUSH2 0x44A JUMP JUMPDEST DUP3 MSTORE POP POP JUMP JUMPDEST PUSH1 0x0 PUSH1 0x20 DUP3 ADD SWAP1 POP PUSH2 0x532 PUSH1 0x0 DUP4 ADD DUP5 PUSH2 0x50E JUMP JUMPDEST SWAP3 SWAP2 POP POP JUMP JUMPDEST PUSH1 0x0 PUSH10 0xFFFFFFFFFFFFFFFFFFFF DUP3 AND SWAP1 POP SWAP2 SWAP1 POP JUMP JUMPDEST PUSH2 0x557 DUP2 PUSH2 0x538 JUMP JUMPDEST DUP2 EQ PUSH2 0x562 JUMPI PUSH1 0x0 DUP1 REVERT JUMPDEST POP JUMP JUMPDEST PUSH1 0x0 DUP2 MLOAD SWAP1 POP PUSH2 0x574 DUP2 PUSH2 0x54E JUMP JUMPDEST SWAP3 SWAP2 POP POP JUMP JUMPDEST PUSH1 0x0 DUP2 SWAP1 POP SWAP2 SWAP1 POP JUMP JUMPDEST PUSH2 0x58D DUP2 PUSH2 0x57A JUMP JUMPDEST DUP2 EQ PUSH2 0x598 JUMPI PUSH1 0x0 DUP1 REVERT JUMPDEST POP JUMP JUMPDEST PUSH1 0x0 DUP2 MLOAD SWAP1 POP PUSH2 0x5AA DUP2 PUSH2 0x584 JUMP JUMPDEST SWAP3 SWAP2 POP POP JUMP JUMPDEST PUSH1 0x0 DUP2 MLOAD SWAP1 POP PUSH2 0x5BF DUP2 PUSH2 0x4B5 JUMP JUMPDEST SWAP3 SWAP2 POP POP JUMP JUMPDEST PUSH1 0x0 DUP1 PUSH1 0x0 DUP1 PUSH1 0x0 PUSH1 0xA0 DUP7 DUP9 SUB SLT ISZERO PUSH2 0x5E1 JUMPI PUSH2 0x5E0 PUSH2 0x425 JUMP JUMPDEST JUMPDEST PUSH1 0x0 PUSH2 0x5EF DUP9 DUP3 DUP10 ADD PUSH2 0x565 JUMP JUMPDEST SWAP6 POP POP PUSH1 0x20 PUSH2 0x600 DUP9 DUP3 DUP10 ADD PUSH2 0x59B JUMP JUMPDEST SWAP5 POP POP PUSH1 0x40 PUSH2 0x611 DUP9 DUP3 DUP10 ADD PUSH2 0x5B0 JUMP JUMPDEST SWAP4 POP POP PUSH1 0x60 PUSH2 0x622 DUP9 DUP3 DUP10 ADD PUSH2 0x5B0 JUMP JUMPDEST SWAP3 POP POP PUSH1 0x80 PUSH2 0x633 DUP9 DUP3 DUP10 ADD PUSH2 0x565 JUMP JUMPDEST SWAP2 POP POP SWAP3 SWAP6 POP SWAP3 SWAP6 SWAP1 SWAP4 POP JUMP JUMPDEST PUSH32 0x4E487B7100000000000000000000000000000000000000000000000000000000 PUSH1 0x0 MSTORE PUSH1 0x11 PUSH1 0x4 MSTORE PUSH1 0x24 PUSH1 0x0 REVERT JUMPDEST PUSH1 0x0 PUSH2 0x67A DUP3 PUSH2 0x57A JUMP JUMPDEST SWAP2 POP PUSH2 0x685 DUP4 PUSH2 0x57A JUMP JUMPDEST SWAP3 POP DUP3 DUP3 MUL PUSH2 0x693 DUP2 PUSH2 0x57A JUMP JUMPDEST SWAP2 POP PUSH32 0x8000000000000000000000000000000000000000000000000000000000000000 DUP5 EQ PUSH1 0x0 DUP5 SLT AND ISZERO PUSH2 0x6CB JUMPI PUSH2 0x6CA PUSH2 0x640 JUMP JUMPDEST JUMPDEST DUP3 DUP3 SDIV DUP5 EQ DUP4 ISZERO OR PUSH2 0x6E0 JUMPI PUSH2 0x6DF PUSH2 0x640 JUMP JUMPDEST JUMPDEST POP SWAP3 SWAP2 POP POP JUMP JUMPDEST PUSH1 0x0 DUP3 DUP3 MSTORE PUSH1 0x20 DUP3 ADD SWAP1 POP SWAP3 SWAP2 POP POP JUMP JUMPDEST PUSH32 0x4469646E27742073656E642074686520636F727265637420616D6F756E74206F PUSH1 0x0 DUP3 ADD MSTORE PUSH32 0x6620455448000000000000000000000000000000000000000000000000000000 PUSH1 0x20 DUP3 ADD MSTORE POP JUMP JUMPDEST PUSH1 0x0 PUSH2 0x754 PUSH1 0x25 DUP4 PUSH2 0x6E7 JUMP JUMPDEST SWAP2 POP PUSH2 0x75F DUP3 PUSH2 0x6F8 JUMP JUMPDEST PUSH1 0x40 DUP3 ADD SWAP1 POP SWAP2 SWAP1 POP JUMP JUMPDEST PUSH1 0x0 PUSH1 0x20 DUP3 ADD SWAP1 POP DUP2 DUP2 SUB PUSH1 0x0 DUP4 ADD MSTORE PUSH2 0x783 DUP2 PUSH2 0x747 JUMP JUMPDEST SWAP1 POP SWAP2 SWAP1 POP JUMP JUMPDEST PUSH1 0x0 PUSH2 0x795 DUP3 PUSH2 0x3F1 JUMP JUMPDEST SWAP2 POP PUSH2 0x7A0 DUP4 PUSH2 0x3F1 JUMP JUMPDEST SWAP3 POP DUP3 DUP3 ADD SWAP1 POP DUP1 DUP3 GT ISZERO PUSH2 0x7B8 JUMPI PUSH2 0x7B7 PUSH2 0x640 JUMP JUMPDEST JUMPDEST SWAP3 SWAP2 POP POP JUMP JUMPDEST PUSH1 0x0 PUSH2 0x7C9 DUP3 PUSH2 0x3F1 JUMP JUMPDEST SWAP2 POP PUSH2 0x7D4 DUP4 PUSH2 0x3F1 JUMP JUMPDEST SWAP3 POP DUP3 DUP3 MUL PUSH2 0x7E2 DUP2 PUSH2 0x3F1 JUMP JUMPDEST SWAP2 POP DUP3 DUP3 DIV DUP5 EQ DUP4 ISZERO OR PUSH2 0x7F9 JUMPI PUSH2 0x7F8 PUSH2 0x640 JUMP JUMPDEST JUMPDEST POP SWAP3 SWAP2 POP POP JUMP JUMPDEST PUSH32 0x4E487B7100000000000000000000000000000000000000000000000000000000 PUSH1 0x0 MSTORE PUSH1 0x12 PUSH1 0x4 MSTORE PUSH1 0x24 PUSH1 0x0 REVERT JUMPDEST PUSH1 0x0 PUSH2 0x83A DUP3 PUSH2 0x3F1 JUMP JUMPDEST SWAP2 POP PUSH2 0x845 DUP4 PUSH2 0x3F1 JUMP JUMPDEST SWAP3 POP DUP3 PUSH2 0x855 JUMPI PUSH2 0x854 PUSH2 0x800 JUMP JUMPDEST JUMPDEST DUP3 DUP3 DIV SWAP1 POP SWAP3 SWAP2 POP POP JUMP INVALID LOG2 PUSH5 0x6970667358 0x22 SLT KECCAK256 0xA6 COINBASE 0xBD OR MULMOD 0xA5 PUSH13 0x98E4FB09948B7E47798A94B97F DUP1 0xED DUP16 0x49 MSTORE8 DUP5 POP LOG1 SLOAD SWAP4 0xDE PUSH6 0x64736F6C6343 STOP ADDMOD SGT STOP CALLER "
				},
				"gasEstimates": {
					"creation": {
						"codeDepositCost": "439600",
						"executionCost": "22580",
						"totalCost": "462180"
					},
					"external": {
						"addressToAmountFunded(address)": "2814",
						"fund()": "infinite",
						"funders(uint256)": "5044",
						"getCOnversionRate(uint256)": "infinite",
						"getPrice()": "infinite",
						"minimumUsd()": "2407"
					}
				},
				"methodIdentifiers": {
					"addressToAmountFunded(address)": "3e47d6f3",
					"fund()": "b60d4288",
					"funders(uint256)": "dc0d3dff",
					"getCOnversionRate(uint256)": "c4f970fd",
					"getPrice()": "98d5fdca",
					"minimumUsd()": "098de820"
				}
			},
			"storageLayout": {
				"storage": [
					{
						"astId": 52,
						"contract": "FundMe.sol:FundMe",
						"label": "minimumUsd",
						"offset": 0,
						"slot": "0",
						"type": "t_uint256"
					},
					{
						"astId": 55,
						"contract": "FundMe.sol:FundMe",
						"label": "funders",
						"offset": 0,
						"slot": "1",
						"type": "t_array(t_address)dyn_storage"
					},
					{
						"astId": 59,
						"contract": "FundMe.sol:FundMe",
						"label": "addressToAmountFunded",
						"offset": 0,
						"slot": "2",
						"type": "t_mapping(t_address,t_uint256)"
					}
				],
				"types": {
					"t_address": {
						"encoding": "inplace",
						"label": "address",
						"numberOfBytes": "20"
					},
					"t_array(t_address)dyn_storage": {
						"base": "t_address",
						"encoding": "dynamic_array",
						"label": "address[]",
						"numberOfBytes": "32"
					},
					"t_mapping(t_address,t_uint256)": {
						"encoding": "mapping",
						"key": "t_address",
						"label": "mapping(address => uint256)",
						"numberOfBytes": "32",
						"value": "t_uint256"
					},
					"t_uint256": {
						"encoding": "inplace",
						"label": "uint256",
						"numberOfBytes": "32"
					}
				}
			},
			"userdoc": {
				"kind": "user",
				"methods": {},
				"version": 1
			}
		}
	}
}