{
	"FundMe.sol": {
		"FundMe": {
			"abi": [
				{
					"inputs": [],
					"name": "fund",
					"outputs": [],
					"stateMutability": "payable",
					"type": "function"
				}
			],
			"devdoc": {
				"kind": "dev",
				"methods": {},
				"version": 1
			},
			"evm": {
				"assembly": "    /* \"FundMe.sol\":62:361  contract FundMe {... */\n  mstore(0x40, 0x80)\n  callvalue\n  dup1\n  iszero\n  tag_1\n  jumpi\n  0x00\n  dup1\n  revert\ntag_1:\n  pop\n  dataSize(sub_0)\n  dup1\n  dataOffset(sub_0)\n  0x00\n  codecopy\n  0x00\n  return\nstop\n\nsub_0: assembly {\n        /* \"FundMe.sol\":62:361  contract FundMe {... */\n      mstore(0x40, 0x80)\n      jumpi(tag_1, lt(calldatasize, 0x04))\n      shr(0xe0, calldataload(0x00))\n      dup1\n      0xb60d4288\n      eq\n      tag_2\n      jumpi\n    tag_1:\n      0x00\n      dup1\n      revert\n        /* \"FundMe.sol\":85:318  function fund() public payable {... */\n    tag_2:\n      tag_3\n      tag_4\n      jump\t// in\n    tag_3:\n      stop\n    tag_4:\n        /* \"FundMe.sol\":264:268  1e18 */\n      0x0de0b6b3a7640000\n        /* \"FundMe.sol\":252:261  msg.value */\n      callvalue\n        /* \"FundMe.sol\":252:268  msg.value > 1e18 */\n      gt\n        /* \"FundMe.sol\":244:310  require(msg.value > 1e18, \"Didn't send the correct amount of ETH\") */\n      tag_6\n      jumpi\n      mload(0x40)\n      0x08c379a000000000000000000000000000000000000000000000000000000000\n      dup2\n      mstore\n      0x04\n      add\n      tag_7\n      swap1\n      tag_8\n      jump\t// in\n    tag_7:\n      mload(0x40)\n      dup1\n      swap2\n      sub\n      swap1\n      revert\n    tag_6:\n        /* \"FundMe.sol\":85:318  function fund() public payable {... */\n      jump\t// out\n        /* \"#utility.yul\":7:176   */\n    tag_9:\n        /* \"#utility.yul\":91:102   */\n      0x00\n        /* \"#utility.yul\":125:131   */\n      dup3\n        /* \"#utility.yul\":120:123   */\n      dup3\n        /* \"#utility.yul\":113:132   */\n      mstore\n        /* \"#utility.yul\":165:169   */\n      0x20\n        /* \"#utility.yul\":160:163   */\n      dup3\n        /* \"#utility.yul\":156:170   */\n      add\n        /* \"#utility.yul\":141:170   */\n      swap1\n      pop\n        /* \"#utility.yul\":7:176   */\n      swap3\n      swap2\n      pop\n      pop\n      jump\t// out\n        /* \"#utility.yul\":182:406   */\n    tag_10:\n        /* \"#utility.yul\":322:356   */\n      0x4469646e27742073656e642074686520636f727265637420616d6f756e74206f\n        /* \"#utility.yul\":318:319   */\n      0x00\n        /* \"#utility.yul\":310:316   */\n      dup3\n        /* \"#utility.yul\":306:320   */\n      add\n        /* \"#utility.yul\":299:357   */\n      mstore\n        /* \"#utility.yul\":391:398   */\n      0x6620455448000000000000000000000000000000000000000000000000000000\n        /* \"#utility.yul\":386:388   */\n      0x20\n        /* \"#utility.yul\":378:384   */\n      dup3\n        /* \"#utility.yul\":374:389   */\n      add\n        /* \"#utility.yul\":367:399   */\n      mstore\n        /* \"#utility.yul\":182:406   */\n      pop\n      jump\t// out\n        /* \"#utility.yul\":412:778   */\n    tag_11:\n        /* \"#utility.yul\":554:557   */\n      0x00\n        /* \"#utility.yul\":575:642   */\n      tag_16\n        /* \"#utility.yul\":639:641   */\n      0x25\n        /* \"#utility.yul\":634:637   */\n      dup4\n        /* \"#utility.yul\":575:642   */\n      tag_9\n      jump\t// in\n    tag_16:\n        /* \"#utility.yul\":568:642   */\n      swap2\n      pop\n        /* \"#utility.yul\":651:744   */\n      tag_17\n        /* \"#utility.yul\":740:743   */\n      dup3\n        /* \"#utility.yul\":651:744   */\n      tag_10\n      jump\t// in\n    tag_17:\n        /* \"#utility.yul\":769:771   */\n      0x40\n        /* \"#utility.yul\":764:767   */\n      dup3\n        /* \"#utility.yul\":760:772   */\n      add\n        /* \"#utility.yul\":753:772   */\n      swap1\n      pop\n        /* \"#utility.yul\":412:778   */\n      swap2\n      swap1\n      pop\n      jump\t// out\n        /* \"#utility.yul\":784:1203   */\n    tag_8:\n        /* \"#utility.yul\":950:954   */\n      0x00\n        /* \"#utility.yul\":988:990   */\n      0x20\n        /* \"#utility.yul\":977:986   */\n      dup3\n        /* \"#utility.yul\":973:991   */\n      add\n        /* \"#utility.yul\":965:991   */\n      swap1\n      pop\n        /* \"#utility.yul\":1037:1046   */\n      dup2\n        /* \"#utility.yul\":1031:1035   */\n      dup2\n        /* \"#utility.yul\":1027:1047   */\n      sub\n        /* \"#utility.yul\":1023:1024   */\n      0x00\n        /* \"#utility.yul\":1012:1021   */\n      dup4\n        /* \"#utility.yul\":1008:1025   */\n      add\n        /* \"#utility.yul\":1001:1048   */\n      mstore\n        /* \"#utility.yul\":1065:1196   */\n      tag_19\n        /* \"#utility.yul\":1191:1195   */\n      dup2\n        /* \"#utility.yul\":1065:1196   */\n      tag_11\n      jump\t// in\n    tag_19:\n        /* \"#utility.yul\":1057:1196   */\n      swap1\n      pop\n        /* \"#utility.yul\":784:1203   */\n      swap2\n      swap1\n      pop\n      jump\t// out\n\n    auxdata: 0xa26469706673582212201e03c8f7031b6305b8a4e64b59548794b4207495b8724af90ba56d3b9f87a4fd64736f6c63430008130033\n}\n",
				"bytecode": {
					"linkReferences": {},
					"object": "608060405234801561001057600080fd5b50610152806100206000396000f3fe60806040526004361061001e5760003560e01c8063b60d428814610023575b600080fd5b61002b61002d565b005b670de0b6b3a76400003411610077576040517f08c379a000000000000000000000000000000000000000000000000000000000815260040161006e906100fc565b60405180910390fd5b565b600082825260208201905092915050565b7f4469646e27742073656e642074686520636f727265637420616d6f756e74206f60008201527f6620455448000000000000000000000000000000000000000000000000000000602082015250565b60006100e6602583610079565b91506100f18261008a565b604082019050919050565b60006020820190508181036000830152610115816100d9565b905091905056fea26469706673582212201e03c8f7031b6305b8a4e64b59548794b4207495b8724af90ba56d3b9f87a4fd64736f6c63430008130033",
					"opcodes": "PUSH1 0x80 PUSH1 0x40 MSTORE CALLVALUE DUP1 ISZERO PUSH2 0x10 JUMPI PUSH1 0x0 DUP1 REVERT JUMPDEST POP PUSH2 0x152 DUP1 PUSH2 0x20 PUSH1 0x0 CODECOPY PUSH1 0x0 RETURN INVALID PUSH1 0x80 PUSH1 0x40 MSTORE PUSH1 0x4 CALLDATASIZE LT PUSH2 0x1E JUMPI PUSH1 0x0 CALLDATALOAD PUSH1 0xE0 SHR DUP1 PUSH4 0xB60D4288 EQ PUSH2 0x23 JUMPI JUMPDEST PUSH1 0x0 DUP1 REVERT JUMPDEST PUSH2 0x2B PUSH2 0x2D JUMP JUMPDEST STOP JUMPDEST PUSH8 0xDE0B6B3A7640000 CALLVALUE GT PUSH2 0x77 JUMPI PUSH1 0x40 MLOAD PUSH32 0x8C379A000000000000000000000000000000000000000000000000000000000 DUP2 MSTORE PUSH1 0x4 ADD PUSH2 0x6E SWAP1 PUSH2 0xFC JUMP JUMPDEST PUSH1 0x40 MLOAD DUP1 SWAP2 SUB SWAP1 REVERT JUMPDEST JUMP JUMPDEST PUSH1 0x0 DUP3 DUP3 MSTORE PUSH1 0x20 DUP3 ADD SWAP1 POP SWAP3 SWAP2 POP POP JUMP JUMPDEST PUSH32 0x4469646E27742073656E642074686520636F727265637420616D6F756E74206F PUSH1 0x0 DUP3 ADD MSTORE PUSH32 0x6620455448000000000000000000000000000000000000000000000000000000 PUSH1 0x20 DUP3 ADD MSTORE POP JUMP JUMPDEST PUSH1 0x0 PUSH2 0xE6 PUSH1 0x25 DUP4 PUSH2 0x79 JUMP JUMPDEST SWAP2 POP PUSH2 0xF1 DUP3 PUSH2 0x8A JUMP JUMPDEST PUSH1 0x40 DUP3 ADD SWAP1 POP SWAP2 SWAP1 POP JUMP JUMPDEST PUSH1 0x0 PUSH1 0x20 DUP3 ADD SWAP1 POP DUP2 DUP2 SUB PUSH1 0x0 DUP4 ADD MSTORE PUSH2 0x115 DUP2 PUSH2 0xD9 JUMP JUMPDEST SWAP1 POP SWAP2 SWAP1 POP JUMP INVALID LOG2 PUSH5 0x6970667358 0x22 SLT KECCAK256 0x1E SUB 0xC8 0xF7 SUB SHL PUSH4 0x5B8A4E6 0x4B MSIZE SLOAD DUP8 SWAP5 0xB4 KECCAK256 PUSH21 0x95B8724AF90BA56D3B9F87A4FD64736F6C63430008 SGT STOP CALLER "
				},
				"gasEstimates": {
					"creation": {
						"codeDepositCost": "67600",
						"executionCost": "117",
						"totalCost": "67717"
					},
					"external": {
						"fund()": "427"
					}
				},
				"methodIdentifiers": {
					"fund()": "b60d4288"
				}
			},
			"storageLayout": {
				"storage": [],
				"types": null
			},
			"userdoc": {
				"kind": "user",
				"methods": {},
				"version": 1
			}
		}
	}
}